{
  "contractName": "Ballot",
  "abi": [
    {
      "inputs": [
        {
          "internalType": "uint256",
          "name": "numProposals",
          "type": "uint256"
        }
      ],
      "stateMutability": "nonpayable",
      "type": "constructor"
    },
    {
      "inputs": [],
      "name": "state",
      "outputs": [
        {
          "internalType": "enum Ballot.Phase",
          "name": "",
          "type": "uint8"
        }
      ],
      "stateMutability": "view",
      "type": "function",
      "constant": true
    },
    {
      "inputs": [
        {
          "internalType": "enum Ballot.Phase",
          "name": "newPhase",
          "type": "uint8"
        }
      ],
      "name": "changeState",
      "outputs": [],
      "stateMutability": "nonpayable",
      "type": "function"
    },
    {
      "inputs": [
        {
          "internalType": "address",
          "name": "voter",
          "type": "address"
        }
      ],
      "name": "register",
      "outputs": [],
      "stateMutability": "nonpayable",
      "type": "function"
    },
    {
      "inputs": [
        {
          "internalType": "uint256",
          "name": "toProposal",
          "type": "uint256"
        }
      ],
      "name": "vote",
      "outputs": [],
      "stateMutability": "nonpayable",
      "type": "function"
    },
    {
      "inputs": [],
      "name": "reqWinner",
      "outputs": [
        {
          "internalType": "uint256",
          "name": "winningProposal",
          "type": "uint256"
        }
      ],
      "stateMutability": "view",
      "type": "function",
      "constant": true
    }
  ],
  "bytecode": "0x60806040526000600360006101000a81548160ff0219169083600381111561002a5761002961016e565b5b021790555034801561003b57600080fd5b50604051610b13380380610b13833981810160405281019061005d91906101d8565b336000806101000a81548173ffffffffffffffffffffffffffffffffffffffff021916908373ffffffffffffffffffffffffffffffffffffffff1602179055506002600160008060009054906101000a900473ffffffffffffffffffffffffffffffffffffffff1673ffffffffffffffffffffffffffffffffffffffff1673ffffffffffffffffffffffffffffffffffffffff1681526020019081526020016000206000018190555060005b818110156101675760026040518060200160405280600081525090806001815401808255809150506001900390600052602060002001600090919091909150600082015181600001555050808061015f90610234565b915050610109565b505061027d565b7f4e487b7100000000000000000000000000000000000000000000000000000000600052602160045260246000fd5b600080fd5b6000819050919050565b6101b5816101a2565b81146101c057600080fd5b50565b6000815190506101d2816101ac565b92915050565b6000602082840312156101ee576101ed61019d565b5b60006101fc848285016101c3565b91505092915050565b7f4e487b7100000000000000000000000000000000000000000000000000000000600052601160045260246000fd5b600061023f826101a2565b91507fffffffffffffffffffffffffffffffffffffffffffffffffffffffffffffffff82141561027257610271610205565b5b600182019050919050565b6108878061028c6000396000f3fe608060405234801561001057600080fd5b50600436106100575760003560e01c80630121b93f1461005c578063268f1153146100785780634420e48614610094578063508b30c9146100b0578063c19d93fb146100ce575b600080fd5b6100766004803603810190610071919061058e565b6100ec565b005b610092600480360381019061008d91906105e0565b610225565b005b6100ae60048036038101906100a9919061066b565b6102ea565b005b6100b8610482565b6040516100c591906106a7565b60405180910390f35b6100d6610540565b6040516100e39190610739565b60405180910390f35b6002806003811115610101576101006106c2565b5b600360009054906101000a900460ff166003811115610123576101226106c2565b5b1461012d57600080fd5b6000600160003373ffffffffffffffffffffffffffffffffffffffff1673ffffffffffffffffffffffffffffffffffffffff168152602001908152602001600020604051806060016040529081600082015481526020016001820160009054906101000a900460ff1615151515815260200160028201548152505090508060200151806101bf57506002805490508310155b156101c957600080fd5b6001816020019015159081151581525050828160400181815250508060000151600284815481106101fd576101fc610754565b5b90600052602060002001600001600082825461021991906107b2565b92505081905550505050565b60008054906101000a900473ffffffffffffffffffffffffffffffffffffffff1673ffffffffffffffffffffffffffffffffffffffff163373ffffffffffffffffffffffffffffffffffffffff161461027d57600080fd5b600360009054906101000a900460ff16600381111561029f5761029e6106c2565b5b8160038111156102b2576102b16106c2565b5b10156102bd57600080fd5b80600360006101000a81548160ff021916908360038111156102e2576102e16106c2565b5b021790555050565b60018060038111156102ff576102fe6106c2565b5b600360009054906101000a900460ff166003811115610321576103206106c2565b5b1461032b57600080fd5b60008054906101000a900473ffffffffffffffffffffffffffffffffffffffff1673ffffffffffffffffffffffffffffffffffffffff163373ffffffffffffffffffffffffffffffffffffffff161415806103d25750600160008373ffffffffffffffffffffffffffffffffffffffff1673ffffffffffffffffffffffffffffffffffffffff16815260200190815260200160002060010160009054906101000a900460ff165b156103dc57600080fd5b60018060008473ffffffffffffffffffffffffffffffffffffffff1673ffffffffffffffffffffffffffffffffffffffff168152602001908152602001600020600001819055506000600160008473ffffffffffffffffffffffffffffffffffffffff1673ffffffffffffffffffffffffffffffffffffffff16815260200190815260200160002060010160006101000a81548160ff0219169083151502179055505050565b60006003806003811115610499576104986106c2565b5b600360009054906101000a900460ff1660038111156104bb576104ba6106c2565b5b146104c557600080fd5b6000805b60028054905081101561053a5781600282815481106104eb576104ea610754565b5b90600052602060002001600001541115610527576002818154811061051357610512610754565b5b906000526020600020016000015491508093505b808061053290610808565b9150506104c9565b50505090565b600360009054906101000a900460ff1681565b600080fd5b6000819050919050565b61056b81610558565b811461057657600080fd5b50565b60008135905061058881610562565b92915050565b6000602082840312156105a4576105a3610553565b5b60006105b284828501610579565b91505092915050565b600481106105c857600080fd5b50565b6000813590506105da816105bb565b92915050565b6000602082840312156105f6576105f5610553565b5b6000610604848285016105cb565b91505092915050565b600073ffffffffffffffffffffffffffffffffffffffff82169050919050565b60006106388261060d565b9050919050565b6106488161062d565b811461065357600080fd5b50565b6000813590506106658161063f565b92915050565b60006020828403121561068157610680610553565b5b600061068f84828501610656565b91505092915050565b6106a181610558565b82525050565b60006020820190506106bc6000830184610698565b92915050565b7f4e487b7100000000000000000000000000000000000000000000000000000000600052602160045260246000fd5b60048110610702576107016106c2565b5b50565b6000819050610713826106f1565b919050565b600061072382610705565b9050919050565b61073381610718565b82525050565b600060208201905061074e600083018461072a565b92915050565b7f4e487b7100000000000000000000000000000000000000000000000000000000600052603260045260246000fd5b7f4e487b7100000000000000000000000000000000000000000000000000000000600052601160045260246000fd5b60006107bd82610558565b91506107c883610558565b9250827fffffffffffffffffffffffffffffffffffffffffffffffffffffffffffffffff038211156107fd576107fc610783565b5b828201905092915050565b600061081382610558565b91507fffffffffffffffffffffffffffffffffffffffffffffffffffffffffffffffff82141561084657610845610783565b5b60018201905091905056fea264697066735822122050e7182b52f38abec59268c49dcbc68df76233ab19fc6d6f4327600959ebc87664736f6c63430008090033",
  "immutableReferences": {},
  "source": "// SPDX-License-Identifier: GPL-3.0\npragma solidity >= 0.7.0 <0.9.0;\n\ncontract Ballot {\n    struct Voter {\n        uint weight;\n        bool voted;\n        uint vote;\n    }\n\n    struct Proposal {\n        uint voteCount;\n    }\n\n    address chairperson;\n    mapping( address => Voter ) voters;\n    Proposal[] proposals;\n\n    enum Phase { Init, Regs, Vote, Done }\n    Phase public state = Phase.Init;\n\n    modifier validPhase(Phase reqPhase){\n        require(state == reqPhase);\n        _;\n    }\n\n    constructor(uint numProposals) {\n        // The contract deployer is assigned as chairperson\n        chairperson = msg.sender;\n        voters[chairperson].weight = 2;\n        for (uint prop = 0; prop < numProposals; prop ++) { \n            proposals.push(Proposal(0));\n        }\n    }\n\n    function changeState(Phase newPhase) public {\n        //only chairperson can modify the states\n        if (msg.sender != chairperson) revert();\n        if (newPhase < state) revert();\n        state = newPhase;\n    }\n\n    function register(address voter) public validPhase(Phase.Regs) {\n        if (msg.sender != chairperson || voters[voter].voted) revert();\n        voters[voter].weight = 1;\n        voters[voter].voted = false;\n    }\n\n    function vote(uint toProposal) public validPhase(Phase.Vote) {\n        Voter memory sender = voters[msg.sender];\n        if (sender.voted || toProposal >= proposals.length) revert();\n        sender.voted = true;\n        sender.vote = toProposal;\n        proposals[toProposal].voteCount += sender.weight;\n    }\n\n    function reqWinner() public validPhase(Phase.Done) view returns (uint winningProposal) {\n        uint winningVoteCount = 0;\n        for (uint prop = 0; prop < proposals.length; prop++) {\n            if (proposals[prop].voteCount > winningVoteCount) {\n                winningVoteCount = proposals[prop].voteCount;\n                winningProposal = prop;\n            }\n        }\n    }\n}\n",
  "sourcePath": "/Users/tagatsu/projects/crypto/Ballot-Dapp/ballot-contract/contracts/Ballot.sol",
  "compiler": {
    "name": "solc",
    "version": "0.8.9+commit.e5eed63a.Emscripten.clang"
  },
  "schemaVersion": "3.4.11",
  "updatedAt": "2023-01-10T18:36:27.808Z",
  "networkType": "ethereum",
  "devdoc": {
    "kind": "dev",
    "methods": {},
    "version": 1
  },
  "userdoc": {
    "kind": "user",
    "methods": {},
    "version": 1
  }
}